{
  "contractName": "InstaDapp",
  "abi": [
    {
      "anonymous": false,
      "inputs": [
        {
          "indexed": false,
          "internalType": "uint256",
          "name": "id",
          "type": "uint256"
        },
        {
          "indexed": false,
          "internalType": "string",
          "name": "ipfsHash",
          "type": "string"
        },
        {
          "indexed": false,
          "internalType": "string",
          "name": "caption",
          "type": "string"
        },
        {
          "indexed": false,
          "internalType": "address",
          "name": "user",
          "type": "address"
        }
      ],
      "name": "Posted",
      "type": "event"
    },
    {
      "inputs": [],
      "name": "nextPost",
      "outputs": [
        {
          "internalType": "uint256",
          "name": "",
          "type": "uint256"
        }
      ],
      "stateMutability": "view",
      "type": "function",
      "constant": true
    },
    {
      "inputs": [
        {
          "internalType": "uint256",
          "name": "",
          "type": "uint256"
        }
      ],
      "name": "posts",
      "outputs": [
        {
          "internalType": "uint256",
          "name": "id",
          "type": "uint256"
        },
        {
          "internalType": "string",
          "name": "ipfsHash",
          "type": "string"
        },
        {
          "internalType": "string",
          "name": "caption",
          "type": "string"
        },
        {
          "internalType": "address",
          "name": "user",
          "type": "address"
        }
      ],
      "stateMutability": "view",
      "type": "function",
      "constant": true
    },
    {
      "inputs": [
        {
          "internalType": "string",
          "name": "ipfsHash",
          "type": "string"
        },
        {
          "internalType": "string",
          "name": "caption",
          "type": "string"
        }
      ],
      "name": "createPost",
      "outputs": [],
      "stateMutability": "nonpayable",
      "type": "function"
    },
    {
      "inputs": [],
      "name": "getPosts",
      "outputs": [
        {
          "components": [
            {
              "internalType": "uint256",
              "name": "id",
              "type": "uint256"
            },
            {
              "internalType": "string",
              "name": "ipfsHash",
              "type": "string"
            },
            {
              "internalType": "string",
              "name": "caption",
              "type": "string"
            },
            {
              "internalType": "address",
              "name": "user",
              "type": "address"
            }
          ],
          "internalType": "struct InstaDapp.Post[]",
          "name": "",
          "type": "tuple[]"
        }
      ],
      "stateMutability": "view",
      "type": "function",
      "constant": true
    }
  ],
  "bytecode": "0x6080604052600060015534801561001557600080fd5b50610caf806100256000396000f3fe608060405234801561001057600080fd5b506004361061004c5760003560e01c80630b1e7f8314610051578063392338f51461008457806341f3004a146100a0578063bc489961146100be575b600080fd5b61006b60048036038101906100669190610685565b6100dc565b60405161007b949392919061079b565b60405180910390f35b61009e60048036038101906100999190610923565b61024c565b005b6100a86103af565b6040516100b59190610b2f565b60405180910390f35b6100c6610592565b6040516100d39190610b51565b60405180910390f35b600081815481106100ec57600080fd5b906000526020600020906004020160009150905080600001549080600101805461011590610b9b565b80601f016020809104026020016040519081016040528092919081815260200182805461014190610b9b565b801561018e5780601f106101635761010080835404028352916020019161018e565b820191906000526020600020905b81548152906001019060200180831161017157829003601f168201915b5050505050908060020180546101a390610b9b565b80601f01602080910402602001604051908101604052809291908181526020018280546101cf90610b9b565b801561021c5780601f106101f15761010080835404028352916020019161021c565b820191906000526020600020905b8154815290600101906020018083116101ff57829003601f168201915b5050505050908060030160009054906101000a900473ffffffffffffffffffffffffffffffffffffffff16905084565b60003390506000604051806080016040528060015481526020018581526020018481526020018373ffffffffffffffffffffffffffffffffffffffff16815250905060008190806001815401808255809150506001900390600052602060002090600402016000909190919091506000820151816000015560208201518160010190805190602001906102e0929190610598565b5060408201518160020190805190602001906102fd929190610598565b5060608201518160030160006101000a81548173ffffffffffffffffffffffffffffffffffffffff021916908373ffffffffffffffffffffffffffffffffffffffff16021790555050506001600081548092919061035a90610bfc565b91905055507f0c535572830f300e4a6b782ae67d846cb7bd0e041667f9c5de36c7727ba39d686001805461038e9190610c45565b8585856040516103a1949392919061079b565b60405180910390a150505050565b60606000805480602002602001604051908101604052809291908181526020016000905b8282101561058957838290600052602060002090600402016040518060800160405290816000820154815260200160018201805461041090610b9b565b80601f016020809104026020016040519081016040528092919081815260200182805461043c90610b9b565b80156104895780601f1061045e57610100808354040283529160200191610489565b820191906000526020600020905b81548152906001019060200180831161046c57829003601f168201915b505050505081526020016002820180546104a290610b9b565b80601f01602080910402602001604051908101604052809291908181526020018280546104ce90610b9b565b801561051b5780601f106104f05761010080835404028352916020019161051b565b820191906000526020600020905b8154815290600101906020018083116104fe57829003601f168201915b505050505081526020016003820160009054906101000a900473ffffffffffffffffffffffffffffffffffffffff1673ffffffffffffffffffffffffffffffffffffffff1673ffffffffffffffffffffffffffffffffffffffff1681525050815260200190600101906103d3565b50505050905090565b60015481565b8280546105a490610b9b565b90600052602060002090601f0160209004810192826105c6576000855561060d565b82601f106105df57805160ff191683800117855561060d565b8280016001018555821561060d579182015b8281111561060c5782518255916020019190600101906105f1565b5b50905061061a919061061e565b5090565b5b8082111561063757600081600090555060010161061f565b5090565b6000604051905090565b600080fd5b600080fd5b6000819050919050565b6106628161064f565b811461066d57600080fd5b50565b60008135905061067f81610659565b92915050565b60006020828403121561069b5761069a610645565b5b60006106a984828501610670565b91505092915050565b6106bb8161064f565b82525050565b600081519050919050565b600082825260208201905092915050565b60005b838110156106fb5780820151818401526020810190506106e0565b8381111561070a576000848401525b50505050565b6000601f19601f8301169050919050565b600061072c826106c1565b61073681856106cc565b93506107468185602086016106dd565b61074f81610710565b840191505092915050565b600073ffffffffffffffffffffffffffffffffffffffff82169050919050565b60006107858261075a565b9050919050565b6107958161077a565b82525050565b60006080820190506107b060008301876106b2565b81810360208301526107c28186610721565b905081810360408301526107d68185610721565b90506107e5606083018461078c565b95945050505050565b600080fd5b600080fd5b7f4e487b7100000000000000000000000000000000000000000000000000000000600052604160045260246000fd5b61083082610710565b810181811067ffffffffffffffff8211171561084f5761084e6107f8565b5b80604052505050565b600061086261063b565b905061086e8282610827565b919050565b600067ffffffffffffffff82111561088e5761088d6107f8565b5b61089782610710565b9050602081019050919050565b82818337600083830152505050565b60006108c66108c184610873565b610858565b9050828152602081018484840111156108e2576108e16107f3565b5b6108ed8482856108a4565b509392505050565b600082601f83011261090a576109096107ee565b5b813561091a8482602086016108b3565b91505092915050565b6000806040838503121561093a57610939610645565b5b600083013567ffffffffffffffff8111156109585761095761064a565b5b610964858286016108f5565b925050602083013567ffffffffffffffff8111156109855761098461064a565b5b610991858286016108f5565b9150509250929050565b600081519050919050565b600082825260208201905092915050565b6000819050602082019050919050565b6109d08161064f565b82525050565b600082825260208201905092915050565b60006109f2826106c1565b6109fc81856109d6565b9350610a0c8185602086016106dd565b610a1581610710565b840191505092915050565b610a298161077a565b82525050565b6000608083016000830151610a4760008601826109c7565b5060208301518482036020860152610a5f82826109e7565b91505060408301518482036040860152610a7982826109e7565b9150506060830151610a8e6060860182610a20565b508091505092915050565b6000610aa58383610a2f565b905092915050565b6000602082019050919050565b6000610ac58261099b565b610acf81856109a6565b935083602082028501610ae1856109b7565b8060005b85811015610b1d5784840389528151610afe8582610a99565b9450610b0983610aad565b925060208a01995050600181019050610ae5565b50829750879550505050505092915050565b60006020820190508181036000830152610b498184610aba565b905092915050565b6000602082019050610b6660008301846106b2565b92915050565b7f4e487b7100000000000000000000000000000000000000000000000000000000600052602260045260246000fd5b60006002820490506001821680610bb357607f821691505b60208210811415610bc757610bc6610b6c565b5b50919050565b7f4e487b7100000000000000000000000000000000000000000000000000000000600052601160045260246000fd5b6000610c078261064f565b91507fffffffffffffffffffffffffffffffffffffffffffffffffffffffffffffffff821415610c3a57610c39610bcd565b5b600182019050919050565b6000610c508261064f565b9150610c5b8361064f565b925082821015610c6e57610c6d610bcd565b5b82820390509291505056fea26469706673582212202bb1c346e99bd0569ee82e6cd30edb3c9811a0a1010bca12d5900597144455ef64736f6c634300080a0033",
  "immutableReferences": {},
  "source": "// SPDX-License-Identifier: MIT\r\npragma solidity ^0.8.7;\r\n\r\ncontract InstaDapp {\r\n    Post[] public posts;\r\n    uint256 public nextPost = 0;\r\n\r\n    struct Post {\r\n        uint256 id;\r\n        string ipfsHash;\r\n        string caption;\r\n        address user;\r\n    }\r\n    event Posted(uint256 id, string ipfsHash, string caption, address user);\r\n\r\n    function createPost(string memory ipfsHash, string memory caption) public {\r\n        address user = msg.sender;\r\n        Post memory newPost = Post(nextPost, ipfsHash, caption, user);\r\n        posts.push(newPost);\r\n        nextPost++;\r\n        emit Posted(nextPost - 1, ipfsHash, caption, user);\r\n    }\r\n\r\n    function getPosts() public view returns (Post[] memory) {\r\n        return posts;\r\n    }\r\n}\r\n",
  "sourcePath": "C:\\Users\\HoangDuong\\Desktop\\insta-dapp\\contracts\\InstaDapp.sol",
  "compiler": {
    "name": "solc",
    "version": "0.8.10+commit.fc410830.Emscripten.clang"
  },
  "schemaVersion": "3.4.4",
  "updatedAt": "2021-12-29T08:53:36.572Z",
  "networkType": "ethereum",
  "devdoc": {
    "kind": "dev",
    "methods": {},
    "version": 1
  },
  "userdoc": {
    "kind": "user",
    "methods": {},
    "version": 1
  }
}